S0150000342077617920747261666669632E737265636B
S11300000C942A000C9434000C9434000C943400A6
S11300100C9434000C9434000C9434000C9434008C
S11300200C9434000C9434000C9434000C9434007C
S11300300C9434000C9434000C9434000C9434006C
S11300400C9434000C9434000C9434000C9434005C
S11300500C94340011241FBECFE5D8E0DEBFCDBF21
S11300600E94E8000C9417010C9400008FEF88BBE9
S11300702FED83E994E0215080409040E1F700C0E7
S1130080000085EE88BB2FE38DE093E02150804093
S11300909040E1F700C000008FEB88BB2FE38DE0B8
S11300A093E0215080409040E1F700C0000087EBCE
S11300B088BB2FE38DE093E0215080409040E1F72E
S11300C000C0000087E688BB2FE38DE093E0215059
S11300D080409040E1F700C0000083EF88BB2FE32D
S11300E08DE093E0215080409040E1F700C0000093
S11300F08BED88BB2FE38DE093E02150804090404E
S1130100E1F700C0000081E688BB2FE38DE093E0B7
S1130110215080409040E1F700C000008DEF88BB83
S11301202FED83E994E0215080409040E1F700C036
S1130130000008958FEB88BB2FED83E994E02150F4
S113014080409040E1F700C0000087EB88BB2FE3BC
S11301508DE093E0215080409040E1F700C0000022
S113016087E688BB2FE38DE093E0215080409040E8
S1130170E1F700C0000083EF88BB2FE38DE093E03C
S1130180215080409040E1F700C000008BED88BB17
S11301902FE38DE093E0215080409040E1F700C0D0
S11301A0000081E688BB2FE38DE093E0215080407E
S11301B09040E1F700C000008DEF88BB2FED83E98C
S11301C094E0215080409040E1F700C00000089581
S11301D08FE384BB81BB1ABA8FEF87BB0CE005BBEE
S11301E0D9E0D2BB0E943600CAE0C5BB11E112BB04
S11301F00E949A00D5BB0F2EF1E2FF2EF02DF2BA29
S11302000E94360015BB12BB0E949A00F5BAD2BBFD
S11302100E94360015BBC2BB0E949A00D5BB02BB2C
S11302200E943600C5BBC2BB0E949A00D7CFF89487
S1050230FFCFFA
S9030000FC
